:03000000020056A5
:0C005600787FE4F6D8FD75812602009D3D
:0A0269003F065B4F666D7D077F6F57
:0401D300021D000009
:0401D70002250000FD
:1000E200D2FF75D803C2DCC2DB0000000000D2DA06
:1000F2000000000000000000000075A52475A48423
:1001020075A32A75A2A2D2B4D2B2D297D292D295B4
:10011200C290C29475CDF185CDCB75CC9A85CCCAEF
:07012200D2CAD2ADD2AF2218
:0100120022CB
:0F01DB00021700000112000213000002150000BD
:10022D001200E2120012E5F7543F44C0F5F7D2FF79
:0E023D001201A212012912001A12016680F0AD
:1001A20030010CC20105120514E51470020513C3D7
:1001B200E5129405748094804006E4F5121202035D
:1001C200C3E51494E8E51394034005E4F513F5142C
:0101D200220A
:01001A0022C3
:10012900E510640170066318FF6317FFE4F510E535
:1001390011640170066318FF6317FFE4F511E50CFC
:10014900640170066318FF6317FFE4F50CE50D649D
:0D0159000170066318FF6317FFE4F50D2227
:10016600E51845176019C292D3E516940AE5159469
:10017600005023B2950516E516700205158017D3B3
:10018600E516940AE5159400500AB2950516E5168B
:0B01960070020515D292E4F515F51675
:0101A100223B
:0401EA00021A0000F5
:0300030002002ECA
:03002E00C2893252
:03000B0002003EB2
:03003E00C28D323E
:03001300020046A2
:03004600C28B3238
:03001B0002004E92
:03004E00C28F322C
:03002300020006D2
:05000600C299C298320E
:03002B0002024B83
:10024B00C0E0C0D075D000C007C2CFD201051CAF33
:0E025B001CEFF47002F51CD007D0D0D0E032BA
:03003B0002000EB2
:04000E005395FE32D6
:03004300020016A2
:040016005395FD32CF
:03004B0002001E92
:04001E005395FB32C9
:0300530002027333
:0A0273005395EF5395DF53AFF732B8
:1001EE00020E0000010800010900010A00010B00C7
:1002030020B2057509018006850911E4F5092097D7
:1002130005750A018006850A0CE4F50A20B4047505
:09022300080122850810E4F50829
:01022C0022AF
:0401FE0002230000D8
:03027D008F2122AC
:040026007522192204
:1000620002022DE493A3F8E493A34003F68001F285
:1000720008DFF48029E493A3F85407240CC8C3339F
:10008200C4540F4420C8834004F456800146F6DF6E
:10009200E4800B01020408102040809001D3E47E2A
:1000A200019360BCA3FF543F30E509541FFEE49363
:1000B200A360010ECF54C025E060A840B8E493A32A
:1000C200FAE493A3F8E493A3C8C582C8CAC583CA55
:1000D200F0A3C8C582C8CAC583CADFE9DEE780BE0D
:0102020000FB
:00000001FF
