:030000000202AC4D
:0C02AC00787FE4F6D8FD7581350202F37E
:0C038D000219000002170000021B000013
:10005600A294E433751900F51AA292E433751700D9
:10006600F518C294C2B4C2B5C297C2B6C292C2B2A1
:10007600C293D290ED64014C7004C291D296ED64A5
:10008600024C7004D291C296EF4E7010D294D2B444
:10009600D2B5D297D2B6D292C2B2D293EF64014E03
:1000A6007010C294D2B4D2B5C297C2B6C292C2B2CE
:1000B600D293EF64024E7010D294D2B4C2B5D297E6
:1000C600D2B6C292D2B2D293EF64034E7010D294DB
:1000D600D2B4D2B5D297C2B6C292D2B2D293EF649C
:1000E600044E7010C294D2B4D2B5C297C2B6D292A0
:1000F600D2B2D293EF64054E7010D294C2B4D2B588
:10010600D297C2B6D292D2B2D293EF64064E701094
:10011600D294C2B4D2B5D297D2B6D292D2B2D29338
:10012600EF64074E7010D294D2B4D2B5C297C2B65D
:10013600D292C2B2D293EF64084E7010D294D2B467
:10014600D2B5D297D2B6D292D2B2D293EF64094E3A
:100156007010D294D2B4D2B5C297C2B6D292D2B2ED
:10016600D293D291D296C294C2B4C2B5C297C2B645
:10017600C292C2B2C293E519451A24FF9294E517BA
:09018600451824FF9292C2902258
:04039900021D000041
:1003DE00D2FF75D803C2DCC2DB0000000000D2DA07
:1003EE000000000000000000000075A52A75A2AAFA
:1003FE0075A3AA75A4A4D2B4D2B2D297C290C29257
:10040E00D29475CDF185CDCB75CC9A85CCCAD2CA96
:0F041E00D2AD758CF1758A9AC28CD2A9D2AF2259
:0100120022CB
:10039D00022500000228000A012400012700022B7B
:0903AD0000000121000222000001
:1004A6001203DE120012E5F7543F44C0F5F7D2FFFF
:0E04B60012047512018F12001A12042D80F02C
:1004750030010CC20105210523E52370020522C3C5
:10048500E5219405748094804006E4F52112021F4D
:10049500C3E52394E8E52294034005E4F522F5231A
:0104A5002234
:01001A0022C3
:10018F00E5156401701A632CFF632BFFD28C0526D3
:10019F00E52670020525646445257004F525F526CE
:1001AF00E4F515E5166401701A632CFF632BFFD27B
:1001BF008C0526E52670020525646445257004F537
:1001CF0025F526E4F516E50C6401701A632CFF6320
:1001DF002BFFD28C0526E526700205256464452584
:1001EF007004F525F526E4F50CE50D6401701D632B
:1001FF002CFF632BFFD28CE526152670021525C325
:10020F00E52594005006752500752601E4F50D22AD
:10042D00E52C452B6006C294D2928004D294C292E0
:10043D00AE25AF267C007D0A1203388D24C3E52638
:10044D009524FFE5259400FE7C007D0A1203388F6C
:10045D0027AF247E007D027C00120056AF277E0060
:08046D007D017C001200562203
:0703B600012D00022F0000E1
:0300030002002ECA
:03002E00C2893252
:03000B000204E20A
:1004E200C0E0C28D052DB295E52D64327004F52D64
:0504F200C28CD0E032D5
:0300130002003EAA
:03003E00C28B3240
:03001B000200469A
:03004600C28F3234
:03002300020006D2
:05000600C299C298320E
:03002B000204C408
:1004C400C0E0C0D075D000C007C2CFD2010531AFA3
:0E04D40031EFF47002F531D007D0D0D0E03215
:03003B0002000EB2
:04000E005395FE32D6
:03004300020016A2
:040016005395FD32CF
:03004B0002001E92
:04001E005395FB32C9
:030053000204F7AD
:0A04F7005395EF5395DF53AFF73232
:1003BD00010F0001100001110001120002130000D5
:0C03CD00010800010900010A00010B00FA
:10021F00A292E433F50FA297E433F510A2B2E433C0
:10022F00F511A2B4E433F51275A32A75A52875A2AA
:10023F008A75A484D292D297D2B2D2B4D29020B27D
:10024F00057509018006850916E4F50920970575DE
:10025F000A018006850A0CE4F50A20B40575080129
:10026F008006850815E4F508209205750B018006B8
:10027F00850B0DE4F50BC29075A52A75A2AA75A37F
:10028F00AA75A4A4E50F24FF9292E51024FF92977C
:0C029F00E51124FF92B2E51224FF92B496
:0102AB002230
:0403D90002340000EA
:03004E008F3222CC
:0400260075331922F3
:1002B8000204A6E493A3F8E493A34003F68001F2B2
:1002C80008DFF48029E493A3F85407240CC8C33347
:1002D800C4540F4420C8834004F456800146F6DF16
:1002E800E4800B010204081020408090038DE47E16
:1002F800019360BCA3FF543F30E509541FFEE4930B
:10030800A360010ECF54C025E060A840B8E493A3D1
:10031800FAE493A3F8E493A3C8C582C8CAC583CAFC
:10032800F0A3C8C582C8CAC583CADFE9DEE780BEB4
:0103DD00001F
:10033800BC000BBE0029EF8DF084FFADF022E4CCA9
:10034800F875F008EF2FFFEE33FEEC33FCEE9DEC72
:10035800984005FCEE9DFE0FD5F0E9E4CEFD22EDB8
:10036800F8F5F0EE8420D21CFEADF075F008EF2F02
:10037800FFED33FD4007985006D5F0F222C398FDF3
:050388000FD5F0EA2290
:00000001FF
